:100000000C9462000C948A000C948A000C948A0070
:100010000C948A000C948A000C948A000C948A0038
:100020000C948A000C948A000C948A000C948A0028
:100030000C948A000C948A000C948A000C948A0018
:100040000C9435080C948A000C94A5080C947F0835
:100050000C948A000C948A000C948A000C948A00F8
:100060000C94D7080C948A0000000000240027009C
:100070002A0000000000250028002B0000000000DE
:1000800023002600290004040404040404040202DA
:100090000202020203030303030301020408102007
:1000A0004080010204081020010204081020000012
:1000B0000008000201000003040700000000000027
:1000C0000000F60911241FBECFEFD8E0DEBFCDBF80
:1000D00024E0A0E3B2E001C01D92AB32B207E1F729
:1000E00012E0A0E0B1E0EAE4F0E202C005900D9277
:1000F000A033B107D9F710E0C2E6D0E004C02197E1
:10010000FE010E94EF0EC136D107C9F70E94AA0A6C
:100110000C9423100C94000096E0899FD0011124C8
:10012000A455BC4F90967C936E935F9791E0919607
:100130009C939197E0911904F0911A0490911804FE
:10014000992339F0309751F0811108C08091C8038C
:100150000994309719F05C968C91FACF0895089520
:100160000895FC01538D448D252F30E0842F90E0BD
:10017000821B930B541710F0CF96089501970895A2
:10018000FC01918D828D981761F0A28DAE0FBF2F6B
:10019000B11D5D968C91928D9F5F9F73928F90E0C1
:1001A00008958FEF9FEF0895FC01918D828D981730
:1001B00031F0828DE80FF11D858D90E008958FEF6D
:1001C0009FEF0895FC01918D228D892F90E0805C36
:1001D0009F4F821B91098F7399270895FC01A48D6D
:1001E000A80FB92FB11DA35ABF4F2C91848D90E059
:1001F00001968F739927848FA689B7892C93A0893C
:10020000B1898C91837080648C93938D848D9813C5
:1002100006C00288F389E02D80818F7D8083089558
:10022000EF92FF920F931F93CF93DF93EC0181E046
:10023000888F9B8D8C8D98131AC0E889F9898081ED
:1002400085FF15C09FB7F894EE89FF896083E88920
:10025000F98980818370806480839FBF81E090E012
:10026000DF91CF911F910F91FF90EF900895F62E9F
:100270000B8D10E00F5F1F4F0F731127E02E8C8D39
:100280008E110CC00FB607FCFACFE889F98980817E
:1002900085FFF5CFCE010E94EE00F1CFEB8DEC0F84
:1002A000FD2FF11DE35AFF4FF0829FB7F8940B8F9B
:1002B000EA89FB8980818062CFCFCF93DF93EC0105
:1002C000888D8823B9F0AA89BB89E889F9898C913E
:1002D00085FD03C0808186FD0DC00FB607FCF7CFFA
:1002E0008C9185FFF2CF808185FFEDCFCE010E94FA
:1002F000EE00E9CFDF91CF91089583E093E00E9473
:10030000E20021E0892B09F420E0822F089580E0AB
:1003100090E0892B29F00E947D0181110C9400004E
:100320000895833081F028F4813099F08230A9F06B
:1003300008958730A9F08830C9F08430B1F48091F5
:1003400080008F7D03C0809180008F778093800034
:10035000089584B58F7784BD089584B58F7DFBCFD4
:100360008091B0008F778093B00008958091B000A5
:100370008F7DF9CFCF93DF93282F30E0F901E2553D
:10038000FF4F8491F901E656FF4FD491F901EA57E6
:10039000FF4FC491CC23A1F081110E949101EC2F59
:1003A000F0E0EE0FFF1FE458FF4FA591B491EC91E0
:1003B000ED2381E090E009F480E0DF91CF91089592
:1003C00080E090E0FACF1F93CF93DF93282F30E0A7
:1003D000F901E255FF4F8491F901E656FF4FD491A0
:1003E000F901EA57FF4FC491CC23A9F0162F8111D0
:1003F0000E949101EC2FF0E0EE0FFF1FEE58FF4F2F
:10040000A591B4918FB7F894EC91111108C0D095D3
:10041000DE23DC938FBFDF91CF911F910895DE2BF8
:10042000F8CFCF93DF9390E0FC01E656FF4F249185
:100430008A579F4FFC0184918823C9F090E0880F70
:10044000991FFC01E859FF4FA591B491FC01EE58AA
:10045000FF4FC591D49161110DC09FB7F8948C9155
:10046000209582238C938881282328839FBFDF9146
:10047000CF910895623051F49FB7F8943C91822F48
:10048000809583238C93E8812E2BEFCF8FB7F89440
:10049000EC912E2B2C938FBFEACF3FB7F89480912D
:1004A000890290918A02A0918B02B0918C0226B5AC
:1004B000A89B05C02F3F19F00196A11DB11D3FBF9C
:1004C000BA2FA92F982F8827BC01CD01620F711D6B
:1004D000811D911D42E0660F771F881F991F4A9565
:1004E000D1F708958F929F92AF92BF92CF92DF92F1
:1004F000EF92FF924B015C010E944D026B017C0167
:100500000E944D026C197D098E099F09683E734057
:1005100081059105A8F321E0821A9108A108B1088C
:1005200088EEC80E83E0D81EE11CF11C81149104F2
:10053000A104B10429F7FF90EF90DF90CF90BF9016
:10054000AF909F908F9008952FB7F8946091850297
:100550007091860280918702909188022FBF089542
:100560000F931F93CF93DF93C82FD62F86E0C89F9A
:10057000F0011124E455FC4F11A2878D90A1813028
:100580009105F1F058F082309105F1F1039709F4EB
:1005900040C0DF91CF911F910F9108956623C9F359
:1005A00061E070E08C2F0E948C000E94A402609396
:1005B0000404709305048093060490930704E9CF24
:1005C0000E94A402009104041091050420910604E5
:1005D00030910704AB01BC01401B510B620B730B44
:1005E0008091160490911704B0E0A0E0841795075D
:1005F000A607B70748F462E070E08C2FDF91CF9137
:100600001F910F910C948C0063E070E0D111C1CF69
:10061000F4CF70E060E0F1CF862F642F0C941102CC
:10062000862F642F0C94E301862F0C94BA01AF92AD
:10063000BF92CF92DF92EF92FF920F931F93CF93CF
:10064000DF936C017B018B01040F151FEB015E0131
:10065000AE18BF08C017D10759F06991D601ED91C6
:10066000FC910190F081E02DC6010995892B79F765
:10067000C501DF91CF911F910F91FF90EF90DF9017
:10068000CF90BF90AF9008950895FC019081905352
:100690009A3008F090E0818180532AE0929F800D8B
:1006A0001124089520915102260F3327331F213240
:1006B0003105ECF42091D902FC0190E080E0243077
:1006C00069F082E00895A09151022191AC014F5C44
:1006D0005D4FA40FB52FB11D2C930196861798F38B
:1006E00080915102680F6093510280E0089581E08B
:1006F00008951092D90281E08093D8021092B3023B
:1007000061E082E10E94E30161E083E10E94E30194
:10071000E9EBF0E080818E7F808380818D7F808314
:1007200088E48093B80085E48093BC00089510921B
:100730009202109291021092E002109202030E9423
:1007400079038FEA90E09093900280938F0280EB80
:1007500090E090938E0280938D020895CF93DF9363
:1007600091E0909330028823B9F0C091B800D09105
:10077000BA008091BC008A7B8093BC0060E082E17B
:100780000E94E30160E083E10E94E3010E9479039B
:10079000D093BA00C093B800DF91CF9108958F92A3
:1007A0009F92AF92BF92CF92DF92EF92FF920F9300
:1007B0001F93CF93DF93D0910203D13208F0D7C0BB
:1007C000182FC09101030E944D026B017C018091A2
:1007D000D90281116BC082E08093D9021093D802B4
:1007E0008FEF8093D7021092D602D093D502A1EE5C
:1007F000B2E0E5EBF2E080E0D81391C01092B402D1
:100800008091B402CC0FC82BC093B4028091B30284
:10081000813009F088C01092B3020E944D026B0132
:100820007C018091B4028093BB008091DB029091A7
:10083000DC02A091DD02B091DE02892B8A2B8B2B8A
:10084000A1F00E944D020091DB021091DC02209188
:10085000DD023091DE026C197D098E099F090617B1
:1008600017072807390708F442C08091BC0083FDB0
:10087000D8CF85EC8093BC000E944D026B017C01B7
:100880008091D902823009F450C08091D7028F3F05
:1008900009F46FC08091D702803209F46CC0809156
:1008A000D702803309F469C084E026C08091DB025E
:1008B0009091DC02A091DD02B091DE02892B8A2B9F
:1008C0008B2B09F484CF0E944D028090DB02909024
:1008D000DC02A090DD02B090DE026C197D098E0969
:1008E0009F0986169706A806B90608F070CF809172
:1008F000DA020E94AE0385E01092E0021092020339
:100900001092DF02DF91CF911F910F91FF90EF9036
:10091000DF90CF90BF90AF909F908F9008959D9162
:1009200091938F5F69CF85EEA5CF8091DB02909187
:10093000DC02A091DD02B091DE02892B8A2B8B2B89
:1009400009F49ECF0E944D020091DB021091DC025F
:100950002091DD023091DE026C197D098E099F091C
:10096000061717072807390708F08ACFC0CF81E09C
:10097000C3CF80E0C1CF82E0BFCF83E0BDCF1F9364
:10098000CF93DF93EA01122FDC0111968D919C9198
:10099000DC01ED91FC910280F381E02D0995C817EF
:1009A000D90729F4812F0E94CF0391E0811190E0B3
:1009B000892FDF91CF911F910895CF93DF93EC01A1
:1009C0008B818823A1F0888191E09093DF0280934E
:1009D00001031092E0021092020381E00E94CF0313
:1009E00091E0811190E0892FDF91CF9108950E94CD
:1009F000970381E08B83CE010E94DD04982F811143
:100A0000E2CFF1CF0895E091920280919102E81730
:100A100030F4F0E0ED56FD4F808190E008958FEFC7
:100A20009FEF089590919202809191022FEF3FEFF6
:100A3000981748F4E92FF0E0ED56FD4F208130E0A3
:100A40009F5F90939202C9010895809191029091C5
:100A50009202891B990B0895CF92DF92EF92FF9239
:100A60000F931F93CF93DF937C01CB018A012091D9
:100A7000DF02222389F0EB016B01C40ED51ECC15D9
:100A8000DD0569F06991D701ED91FC910190F0814C
:100A9000E02DC7010995F3CF642F0E945203C801CE
:100AA000DF91CF911F910F91FF90EF90DF90CF904A
:100AB0000895CF93DF931F92CDB7DEB7698320915E
:100AC000DF022223F9F020910203203258F021E0C6
:100AD00030E0FC013383228390E080E00F90DF91CF
:100AE000CF9108958091E002E82FF0E0EF51FD4FA3
:100AF000998190838F5F8093E0028093020381E06D
:100B000090E0ECCF61E0CE0101960E945203F7CF56
:100B1000FC01248131E03093DF0220930103109225
:100B2000E002109202038385682B80EA93E00E9422
:100B3000590581E00C94CF0390E080E008952F9256
:100B40003F924F925F926F927F928F929F92AF925D
:100B5000BF92CF92DF92EF92FF920F931F93CF93AA
:100B6000DF935C011B016A01F12CE12CD501149685
:100B70008D919C9186010E191F098017910708F429
:100B80008C01F501D0810E944D022B013C01809126
:100B9000D902811172C0C02F013208F0C0E2F1E029
:100BA000F093D90221E0C601801B910BE816F906EB
:100BB00008F420E02093D8028FEF8093D7021092A0
:100BC000D6028C0F8093D502A1E0A093B40280914D
:100BD000B402DD0FD82BD093B4028091B3028130E0
:100BE00009F090C01092B3020E944D022B013C010B
:100BF0008091B4028093BB008091DB029091DC0273
:100C0000A091DD02B091DE02892B8A2B8B2BA1F003
:100C10000E944D022091DB023091DC024091DD0206
:100C20005091DE026419750986099709261737075E
:100C30004807590708F442C08091BC0083FDD8CF13
:100C4000B5ECB093BC000E944D022B013C01809199
:100C5000D902813009F45AC08091D6028C1710F461
:100C6000C091D602A5EBB2E0E3E9F2E080E08C1798
:100C700051F19D9191938F5FFACF8091DB0290911A
:100C8000DC02A091DD02B091DE02892B8A2B8B2B36
:100C900009F47DCF0E944D022091DB023091DC02ED
:100CA0004091DD025091DE026419750986099709A9
:100CB000261737074807590708F069CF8091DA02ED
:100CC0000E94AE03C0E010929202C0939102C0173E
:100CD000110609F057C041018E0C9F1CE401CE01A2
:100CE000881999098017910798F5D50111968D916A
:100CF0009C91DC01ED91FC910284F385E02D099536
:100D00008993EDCFE5EEE093BC009DCF8091DB02AF
:100D10009091DC02A091DD02B091DE02892B8A2B3A
:100D20008B2B09F494CF0E944D022091DB0230916D
:100D3000DC024091DD025091DE02641975098609DA
:100D40009709261737074807590708F080CFB6CF0D
:100D5000E00EF11EEC14FD0408F408CF81E0DF91F1
:100D6000CF911F910F91FF90EF90DF90CF90BF90A8
:100D7000AF909F908F907F906F905F904F903F903B
:100D80002F90089580E0EBCF0F931F93CF938C01AA
:100D9000C62F0E9488056C2F6460C8010E948805D8
:100DA0006C2F6B7FC8010E94880583EC90E001974F
:100DB000F1F7CF911F910F9108950F931F93CF9348
:100DC000DF938C01D62FC42F607F642B0E94C40652
:100DD00080E1D89FB00111246C2BC801DF91CF9125
:100DE0001F910F910C94C406CF93DF93CDB7DEB75C
:100DF00028970FB6F894DEBF0FBECDBF98E0E6E2AD
:100E0000F1E0DE01119601900D929A95E1F7909133
:100E10002304981710F48FEF890F90E0880F991F23
:100E200021E030E02C0F3D1F820F931FFC016081F9
:100E3000606840E08BE194E028960FB6F894DEBF3E
:100E40000FBECDBFDF91CF910C94DD06CF93DF9322
:100E5000823028F090912004986090932004809331
:100E6000230462E370E080E090E00E9472026091EF
:100E700026048BE194E00E94880568EE73E080E030
:100E800090E00E94720260E38BE194E00E94C4064D
:100E9000CBE4D6E4CE010197F1F760E38BE194E077
:100EA0000E94C4062197F1F760E38BE194E00E9471
:100EB000C40683E592E00197F1F760E28BE194E0EC
:100EC0000E94C40660912004606240E08BE194E0DF
:100ED0000E94DD0684E08093210440E06CE08BE119
:100EE00094E00E94DD0640E061E08BE194E00E9426
:100EF000DD06CBE3DFE1CE010197F1F782E08093DD
:100F0000220440E066E08BE194E00E94DD0640E0D0
:100F100062E08BE194E00E94DD062197F1F7DF911A
:100F2000CF91089541E00E94DD0681E090E00895B0
:100F3000FB0101900020E9F73197AF01461B570BE9
:100F4000DC01ED91FC910280F381E02D09948F92F8
:100F50009F92AF92BF920F931F93CF93DF93CDB722
:100F6000DEB7A1970FB6F894DEBF0FBECDBF19A2B2
:100F7000423008F44AE08E010F5D1F4F842E912C01
:100F8000B12CA12CA50194010E94CD0EE62FB90130
:100F9000CA01EA3004F5E05DD801EE938D01232B00
:100FA000242B252B79F790E080E0109729F0BD01E4
:100FB0008BE194E00E949807A1960FB6F894DEBFEB
:100FC0000FBECDBFDF91CF911F910F91BF90AF901A
:100FD0009F908F900895E95CDFCFBC018BE194E096
:100FE0000C94980781E00E94F40688E691E00E9444
:100FF000ED0788E792E00C94ED0785ED8093BC0047
:101000008091DB029091DC02A091DD02B091DE02C2
:101010000796A11DB11D23E0B695A79597958795D5
:101020002A95D1F72091BC0024FD03C01092D9026B
:1010300008954091DB025091DC026091DD027091D5
:10104000DE02452B462B472B69F30097A105B1051E
:1010500041F02AE22A95F1F700C00197A109B109F0
:10106000E1CF8091DA020C94AE031F920F920FB67B
:101070000F9211242F933F938F939F93AF93BF931E
:101080008091850290918602A0918702B09188029A
:101090003091840223E0230F2D3758F50196A11DCE
:1010A000B11D209384028093850290938602A093C1
:1010B0008702B09388028091890290918A02A09160
:1010C0008B02B0918C020196A11DB11D8093890203
:1010D00090938A02A0938B02B0938C02BF91AF9140
:1010E0009F918F913F912F910F900FBE0F901F9066
:1010F000189526E8230F0296A11DB11DD2CF1F928D
:101100000F920FB60F9211242F933F934F935F933B
:101110006F937F938F939F93AF93BF93EF93FF93BF
:1011200083E093E00E94EE00FF91EF91BF91AF91B9
:101130009F918F917F916F915F914F913F912F91EF
:101140000F900FBE0F901F9018951F920F920FB621
:101150000F9211242F938F939F93EF93FF93E0911E
:101160001303F09114038081E0911903F0911A03A5
:1011700082FD1BC0908180911C038F5F8F73209133
:101180001D03821741F0E0911C03F0E0ED5FFC4F7E
:10119000958F80931C03FF91EF919F918F912F91D9
:1011A0000F900FBE0F901F9018958081F4CF1F9263
:1011B0000F920FB60F9211242F933F934F935F938B
:1011C0006F937F938F939F93AF93BF93EF93FF930F
:1011D0008091B900887F803609F44AC0F0F58832E2
:1011E00009F4A7C018F5803109F49BC0B8F488232E
:1011F00009F4F9C0883009F494C0FF91EF91BF91D0
:10120000AF919F918F917F916F915F914F913F919E
:101210002F910F900FBE0F901F901895883109F4F1
:1012200088C0803251F78093D70214C0803409F40B
:101230009DC040F48033B9F38833F9F68093D70228
:1012400085ECB0C0803509F485C0883509F496C0B6
:10125000883499F60E94FD07D0CF883909F48CC0F4
:1012600038F5883729F050F4883611F0803729F6A0
:1012700083E08093D9021092730257C0883809F432
:101280007BC0803919F0803809F0B7CF80917302A4
:10129000803208F071C0E091730281E08E0F80937C
:1012A00073028091BB00F0E0ED5AFD4F80833DC09A
:1012B000803B39F0E0F4803A09F479C0883A09F0CB
:1012C0009CCF84E08093D902109252021092510276
:1012D000E0918F02F0919002099580915102811165
:1012E0000FC081E0809351021092310209C0803C0E
:1012F00009F4A6CF883C09F4A3CF883B09F07DCF41
:10130000E091520281E08E0F80935202F0E0EF5C98
:10131000FD4F80818093BB009091520280915102D9
:1013200029C08091B4028093BB0085EC8093BC00FF
:1013300064CF9091D6028091D502981758F5E0912C
:10134000D60281E08E0F8093D602F0E0EB54FD4F81
:101350008081E9CFE091D60281E08E0F8093D602A2
:101360008091BB00F0E0EB54FD4F80839091D6025A
:101370008091D5029817C8F285E8D8CFE091D602BF
:1013800081E08E0F8093D6028091BB00F0E0EB5499
:10139000FD4F80838091D80281115CCF81E08093E2
:1013A000B30284EA8093BC001092D90226CF85EC68
:1013B0008093BC001092D90280917302803230F485
:1013C000E0917302F0E0ED5AFD4F108260917302DC
:1013D00070E0E0918D02F0918E0283E592E0099534
:1013E000109273020ACF1092D70234CF10920603E4
:1013F0001092050388EE93E0A0E0B0E0809307032D
:1014000090930803A0930903B0930A0322E331E009
:10141000309304032093030325EC30E03093100352
:1014200020930F0324EC30E0309312032093110338
:1014300020EC30E0309314032093130321EC30E0D0
:10144000309316032093150322EC30E030931803F9
:101450002093170326EC30E030931A0320931903EE
:1014600010921C0310921D0310921E0310921F0372
:101470001092A3031092A2038093A4039093A50358
:10148000A093A603B093A70384E491E09093A103F3
:101490008093A00310921E0410921D0480E691E038
:1014A00090931C0480931B0487E280931F0484E1C3
:1014B0008093240484E080932504109226041092E3
:1014C000AE031092B2031092B1031092B30386E5FB
:1014D00091E09093AD038093AC03E8ECF3E01082CD
:1014E000148213821582369684E0E430F807B9F747
:1014F0008CE091E090930F0480930E0488E091E0DB
:10150000909311048093100484E0809312048093DC
:10151000130480E191E090930D0480930C048AE021
:1015200090E0909315048093140484EF91E09093DD
:1015300017048093160410921A0410921904109242
:1015400008041092090410920A0410920B041092DD
:1015500018040895CF93DF93CDB7DEB729970FB660
:10156000F894DEBF0FBECDBF789484B5826084BD91
:1015700084B5816084BD85B5826085BD85B5816097
:1015800085BD80916E00816080936E001092810015
:1015900080918100826080938100809181008160D0
:1015A0008093810080918000816080938000809191
:1015B000B10084608093B1008091B000816080931D
:1015C000B00080917A00846080937A0080917A00E4
:1015D000826080937A0080917A00816080937A00A3
:1015E00080917A00806880937A001092C10061E057
:1015F0008DE00E94110261E08BE00E94110260E028
:1016000080E00E94110260E081E00E94110260E02F
:1016100082E00E94110260E083E00E94110261E01A
:1016200084E00E94110261E085E00E94110261E005
:1016300086E00E94110261E087E00E9411020E9490
:10164000970310922004809125040E94260788E0C9
:101650008093260460E08BE194E00E94880584E09A
:101660000E94260740E061E08BE194E00E94DD06E5
:101670008BE39FE10197F1F70E94970381E080934C
:10168000DF0288E6809301031092E00210920203C9
:1016900067E080EA93E00E94590560E180EA93E008
:1016A0000E94590581E00E94CF03809174029091BD
:1016B0007502009711F00E94910F86E090E00E9461
:1016C000F50E8C0188E6F801808380EA93E092832E
:1016D0008183138280E290E0958384831093750266
:1016E000009374020E949703FF24F394F801F3829D
:1016F000C8010E94DD0419868091740290917502E0
:10170000FC0124813581232B89F02081F092DF02B6
:10171000209301031092E0021092020321E041E0C5
:1017200050E0BE01675F7F4F0E94BF0441E050E080
:10173000CE0101967C01BC018091740290917502EA
:101740000E949F05898190E0880F892F881F990B3F
:10175000892B09F475C06FE671E083E093E00E9485
:10176000980763E871E083E093E00E9498078FE8B0
:1017700091E00E944503182F8AE891E00E944503FA
:10178000082F82E991E00E944503D82E85E991E077
:101790000E944503C82E88E991E00E944503382F36
:1017A00086E0F70111928A95E9F72AE0832F622FEC
:1017B0000E94C10E982F880F890F880F830F8A838C
:1017C0008C2D0E94C10E982F880F890F880F8C0DC9
:1017D0008B838D2D0E94C10E982F880F890F880F43
:1017E0008D0D8C83802F0E94C10E982F880F890F3A
:1017F000880F800F8E8385E08F83812F0E94C10E1A
:10180000982F880F890F880F810F88878091740225
:1018100090917502FC01248135812830310580F0DA
:10182000208131E03093DF02209301031092E00227
:101830001092020321E048E050E0B7010E94BF048B
:1018400081E00E94F4068BE991E00E94ED0764EFCD
:1018500071E080E090E00E94720281E00E94F40654
:101860008EEA91E00E94ED0764EF71E080E090E085
:101870000E94720281E00E94F40683EC91E00E94D3
:10188000ED0783E00E94F40688ED91E00E94ED07E9
:10189000A8EE2A2EA3E03A2E55245394FAE26F2E96
:1018A0000E94A40200918002109181022091820284
:1018B000309183025B016C01A01AB10AC20AD30AFB
:1018C00096018501083E13402105310508F48AC0C0
:1018D00060938002709381028093820290938302CE
:1018E00019820091740210917502F801848195812A
:1018F000892BC1F080815092DF0280930103109206
:10190000E0021092020320E041E050E0B701C8017C
:101910000E94BF04882331F047E050E0B701C801BE
:101920000E949F0569816F77862F90E054E095951E
:1019300087955A95E1F7982F990F990F182F191B32
:10194000110F160F6A81862F90E074E095958795A8
:101950007A95E1F7982F990F990F082F091B000F1F
:10196000060F6B81862F90E0E4E095958795EA95C8
:10197000E1F7982F990F990FD82ED91ADD0CD60EB2
:1019800080E00E94F4066D2D70E090E080E04AE077
:101990000E94A7078BEE91E00E94ED07602F70E098
:1019A00090E080E04AE00E94A7078BEE91E00E9461
:1019B000ED07612F70E090E080E04AE00E94A70709
:1019C00086ED91E00E94ED0780917F02882351F01F
:1019D00010917E02612F8BE00E94E301F1E01F274E
:1019E00010937E02509218040E94A40200910804F1
:1019F0001091090420910A0430910B04AB01BC0141
:101A0000401B510B620B730B8091140490911504D1
:101A1000B0E0A0E084179507A607B70708F082C1D9
:101A200010E080911204181760F4E0910E04F09118
:101A30000F04E10FF11D62E080810E9411021F5F1F
:101A4000F0CF712C80911304781608F063C0C72C76
:101A5000D12CE0911004F0911104EC0DFD1D61E01A
:101A600080810E941102E0911004F0911104EC0DAC
:101A7000FD1D60E080810E94E30181E090E0A0E034
:101A8000B0E0072C04C0880F991FAA1FBB1F0A943F
:101A9000D2F74C015C01A094B094412C80911204C7
:101AA000481608F5042D10E0E0910E04F0910F04A3
:101AB000E00FF11F80810E94BA010C5F1F4F000FE1
:101AC000111FF801E455FC4F892B41F4808191816D
:101AD00088299929918380834394E0CF80819181E3
:101AE0008A219B21F7CFE0911004F0911104EC0DB5
:101AF000FD1D61E080810E94E301809110049091BE
:101B00001104C80ED91E60E0F60180810E94110206
:101B1000739498CF3CEAC32E33E0D32E8601F801AC
:101B2000878D90A1892B39F4148EAA24AA94BA2CFB
:101B3000B68EA58E11A20A5F1F4F2016310679F7C7
:101B4000B12C80911204B81608F053C0A12C8B2C34
:101B5000912C880C991CA4014C545C4F4A01209193
:101B60001304A21608F043C0F401608171810A2CAD
:101B700002C0769567950A94E2F7B29E900111240F
:101B80002A0D311DECEAF3E080E0458D568D2417D7
:101B9000350709F4F4C08F5F36968A30B1F760FFDD
:101BA00024C0ECEAF3E090E080E0448D411118C0DD
:101BB000E0910C04F0910D04E20FF31F408156E018
:101BC000589FF001599FF00D1124E455FC4F448FAC
:101BD000368F258F10A2178E61E00E94B00205C0DB
:101BE000019636968A30910501F7A394B8CFB39445
:101BF000A8CFB12CF60181A18111B82EF6E0CF0E4D
:101C0000D11C0C151D05B1F70E94A40260930804B5
:101C10007093090480930A0490930B04BB2009F489
:101C200081C08091CD03882309F47CC08091CB03CF
:101C30009091CC03019709F075C08091C803811180
:101C400074C08091760290917702039709F05BC08F
:101C500064E071E088E792E00E941A10892B89F411
:101C600010927D0210927C0282E00E94F4068DEEBA
:101C700091E00E94ED0761E08BE00E94E301109289
:101C80007F0260E071E088E792E00E941A10892BE1
:101C900089F410927D0210927C0282E00E94F40688
:101CA00083E092E00E94ED0760E08BE00E94E30198
:101CB00010927F0264E071E088E792E00E941A10BF
:101CC000892BA9F060E071E088E792E00E941A1089
:101CD000892B69F010927D0210927C0282E00E94B2
:101CE000F4068AE192E00E94ED0750927F02109282
:101CF0007702109276026092780260927902609286
:101D00007A020E94F20780E0A82E80E0B82EAB286D
:101D100009F4C6CD0E947D01882309F4BFCD0E943D
:101D20000000BACD109218048CCFE0917C02F091A3
:101D30007D02E858FD4F80830E94F20761E08DE04C
:101D40000E94E30166E970E080E090E00E94720288
:101D500060E08DE00E94E30180917C0290917D0221
:101D6000019690937D0280937C02809176029091FF
:101D700077020196909377028093760262CF61702A
:101D80002CCF991B79E004C0991F961708F0961B79
:101D9000881F7A95C9F780950895A1E21A2EAA1B8B
:101DA000BB1BFD010DC0AA1FBB1FEE1FFF1FA2170B
:101DB000B307E407F50720F0A21BB30BE40BF50B08
:101DC000661F771F881F991F1A9469F76095709591
:101DD000809590959B01AC01BD01CF010895EE0F58
:101DE000FF1F0590F491E02D09940F931F93CF935B
:101DF000DF938230910510F482E090E0E0912904B5
:101E0000F0912A0430E020E0B0E0A0E0309799F4AF
:101E10002115310509F44AC0281B390B243031053E
:101E2000D8F58A819B816115710589F1FB01938346
:101E30008283FE0111C040815181028113814817C4
:101E40005907E0F04817590799F4109761F0129676
:101E50000C93129713961C933296CF01DF91CF917A
:101E60001F910F9108950093290410932A04F4CF31
:101E70002115310551F04217530738F0A901DB0154
:101E80009A01BD01DF01F801C1CFEF01F9CF9093B5
:101E90002A0480932904CDCFFE01E20FF31F819322
:101EA00091932250310939832883D7CF2091270479
:101EB00030912804232B41F42091220130912301F9
:101EC0003093280420932704209120013091210190
:101ED0002115310541F42DB73EB7409124015091B1
:101EE0002501241B350BE0912704F0912804E2170B
:101EF000F307A0F42E1B3F0B2817390778F0AC012D
:101F00004E5F5F4F2417350748F04E0F5F1F509309
:101F1000280440932704819391939FCFF0E0E0E061
:101F20009CCFCF93DF930097E9F0FC0132971382A7
:101F30001282A0912904B0912A04ED0130E020E042
:101F40001097A1F420813181820F931F20912704E3
:101F5000309128042817390709F061C0F09328044C
:101F6000E0932704DF91CF910895EA01CE17DF07B0
:101F7000E8F54A815B819E0141155105B1F7E90100
:101F8000FB83EA8349915991C40FD51FEC17FD07D4
:101F900061F4808191810296840F951FE9019983F4
:101FA0008883828193819B838A83F0E0E0E01296AC
:101FB0008D919C9113970097B9F52D913C911197B4
:101FC000CD010296820F931F20912704309128049F
:101FD0002817390739F6309751F510922A041092D4
:101FE0002904B0932804A0932704BCCFD383C283D1
:101FF00040815181840F951FC817D90761F44E5F46
:102000005F4F88819981480F591F518340838A818E
:102010009B81938382832115310509F0B0CFF09322
:102020002A04E09329049ECFFD01DC01C0CF138276
:102030001282D7CFFB01DC018D9101908019011034
:0A204000D9F3990B0895F894FFCF2F
:10204A00333132003132330007060504030201003E
:10205A0031323334353637383941424344454647BD
:10206A0000002B048000000040001400540000000F
:10207A00000010011703B1005D01E200C000D400A6
:10208A000000000059052C059C05020525051205CE
:10209A000305000000000C031003140300000000F5
:1020AA00920717039C054403506173733A20005248
:1020BA005443206973204E4F542072756E6E696EB8
:1020CA006721000D0A004D61792020382032303214
:1020DA00340032313A31303A313800506C6561732C
:1020EA006520456E74657220506173732100546FC8
:1020FA0020436F6E74726F6C2054686520446F6F52
:10210A00722100506173733A202020202020202061
:10211A002020202020202000496E20526F6F6D3A27
:10212A00203130206C6566742120003A00436F72BA
:10213A007265637421204F70656E21202020202053
:10214A00202000436F72726563742120436C6F73A1
:10215A0065212020202020202000556E636F727296
:10216A00656374212054727920616761696E000089
:00000001FF
